{
  "_format": "hh-sol-artifact-1",
  "contractName": "Betting",
  "sourceName": "contracts/Betting.sol",
  "abi": [
    {
      "inputs": [],
      "stateMutability": "nonpayable",
      "type": "constructor"
    },
    {
      "inputs": [],
      "name": "getEndPoint",
      "outputs": [
        {
          "internalType": "string",
          "name": "",
          "type": "string"
        },
        {
          "internalType": "string",
          "name": "",
          "type": "string"
        }
      ],
      "stateMutability": "view",
      "type": "function"
    },
    {
      "inputs": [
        {
          "internalType": "uint256",
          "name": "feedID",
          "type": "uint256"
        }
      ],
      "name": "getFeed",
      "outputs": [
        {
          "internalType": "uint256",
          "name": "value",
          "type": "uint256"
        },
        {
          "internalType": "uint256",
          "name": "decimals",
          "type": "uint256"
        },
        {
          "internalType": "uint256",
          "name": "timestamp",
          "type": "uint256"
        },
        {
          "internalType": "string",
          "name": "valStr",
          "type": "string"
        }
      ],
      "stateMutability": "view",
      "type": "function"
    },
    {
      "inputs": [],
      "name": "getIDs",
      "outputs": [
        {
          "internalType": "string[]",
          "name": "",
          "type": "string[]"
        }
      ],
      "stateMutability": "view",
      "type": "function"
    },
    {
      "inputs": [],
      "name": "morpheus",
      "outputs": [
        {
          "internalType": "contract Morpheus",
          "name": "",
          "type": "address"
        }
      ],
      "stateMutability": "view",
      "type": "function"
    },
    {
      "inputs": [],
      "name": "request",
      "outputs": [],
      "stateMutability": "payable",
      "type": "function"
    },
    {
      "inputs": [
        {
          "internalType": "string",
          "name": "_endPoint",
          "type": "string"
        },
        {
          "internalType": "string",
          "name": "_path",
          "type": "string"
        }
      ],
      "name": "setEndPoint",
      "outputs": [],
      "stateMutability": "nonpayable",
      "type": "function"
    },
    {
      "inputs": [],
      "name": "test",
      "outputs": [
        {
          "internalType": "uint256",
          "name": "",
          "type": "uint256"
        }
      ],
      "stateMutability": "pure",
      "type": "function"
    }
  ],
  "bytecode": "0x60806040526002600055655af3107a40006002556040518060600160405280603981526020016200142a603991396004908051906020019062000044929190620000f7565b506040518060400160405280600981526020017f6f70656e2c6c61737400000000000000000000000000000000000000000000008152506005908051906020019062000092929190620000f7565b50348015620000a057600080fd5b506e071821e8033345a7be174647be0706600160006101000a81548173ffffffffffffffffffffffffffffffffffffffff021916908373ffffffffffffffffffffffffffffffffffffffff160217905550620001ad565b828054600181600116156101000203166002900490600052602060002090601f0160209004810192826200012f57600085556200017b565b82601f106200014a57805160ff19168380011785556200017b565b828001600101855582156200017b579182015b828111156200017a5782518255916020019190600101906200015d565b5b5090506200018a91906200018e565b5090565b5b80821115620001a95760008160009055506001016200018f565b5090565b61126d80620001bd6000396000f3fe6080604052600436106100705760003560e01c8063d55d113d1161004e578063d55d113d146100d4578063ecb76d90146100ff578063f8a8fd6d1461013f578063ff4773081461016a57610070565b8063160a7ff514610075578063338cdca1146100a15780639354d709146100ab575b600080fd5b34801561008157600080fd5b5061008a610195565b604051610098929190610fb3565b60405180910390f35b6100a96102dc565b005b3480156100b757600080fd5b506100d260048036038101906100cd9190610c67565b61068a565b005b3480156100e057600080fd5b506100e96106bc565b6040516100f69190610f15565b60405180910390f35b34801561010b57600080fd5b5061012660048036038101906101219190610cd3565b61076f565b6040516101369493929190611005565b60405180910390f35b34801561014b57600080fd5b50610154610835565b6040516101619190610fea565b60405180910390f35b34801561017657600080fd5b5061017f61083e565b60405161018c9190610f98565b60405180910390f35b60608060046005818054600181600116156101000203166002900480601f0160208091040260200160405190810160405280929190818152602001828054600181600116156101000203166002900480156102315780601f1061020657610100808354040283529160200191610231565b820191906000526020600020905b81548152906001019060200180831161021457829003601f168201915b50505050509150808054600181600116156101000203166002900480601f0160208091040260200160405190810160405280929190818152602001828054600181600116156101000203166002900480156102cd5780601f106102a2576101008083540402835291602001916102cd565b820191906000526020600020905b8154815290600101906020018083116102b057829003601f168201915b50505050509050915091509091565b6000600167ffffffffffffffff811180156102f657600080fd5b5060405190808252806020026020018201604052801561032a57816020015b60608152602001906001900390816103155790505b50905060048054600181600116156101000203166002900480601f0160208091040260200160405190810160405280929190818152602001828054600181600116156101000203166002900480156103c35780601f10610398576101008083540402835291602001916103c3565b820191906000526020600020905b8154815290600101906020018083116103a657829003601f168201915b5050505050816000815181106103d557fe5b60200260200101819052506000600167ffffffffffffffff811180156103fa57600080fd5b5060405190808252806020026020018201604052801561042e57816020015b60608152602001906001900390816104195790505b50905060058054600181600116156101000203166002900480601f0160208091040260200160405190810160405280929190818152602001828054600181600116156101000203166002900480156104c75780601f1061049c576101008083540402835291602001916104c7565b820191906000526020600020905b8154815290600101906020018083116104aa57829003601f168201915b5050505050816000815181106104d957fe5b60200260200101819052506000600167ffffffffffffffff811180156104fe57600080fd5b5060405190808252806020026020018201604052801561052d5781602001602082028036833780820191505090505b50905060008160008151811061053f57fe5b6020026020010181815250506000600167ffffffffffffffff8111801561056557600080fd5b506040519080825280602002602001820160405280156105945781602001602082028036833780820191505090505b509050600254816000815181106105a757fe5b602002602001018181525050600160009054906101000a900473ffffffffffffffffffffffffffffffffffffffff1673ffffffffffffffffffffffffffffffffffffffff1663639b55ba600254868686866040518663ffffffff1660e01b81526004016106179493929190610f37565b6000604051808303818588803b15801561063057600080fd5b505af1158015610644573d6000803e3d6000fd5b50505050506040513d6000823e3d601f19601f8201168201806040525081019061066e9190610c26565b6003908051906020019061068392919061099e565b5050505050565b81600490805190602001906106a09291906109eb565b5080600590805190602001906106b79291906109eb565b505050565b6060600060038054905067ffffffffffffffff811180156106dc57600080fd5b5060405190808252806020026020018201604052801561071057816020015b60608152602001906001900390816106fb5790505b50905060005b600380549050811015610767576107436003828154811061073357fe5b9060005260206000200154610864565b82828151811061074f57fe5b60200260200101819052508080600101915050610716565b508091505090565b60008060006060600160009054906101000a900473ffffffffffffffffffffffffffffffffffffffff1673ffffffffffffffffffffffffffffffffffffffff1663ecb76d90866040518263ffffffff1660e01b81526004016107d19190610fea565b60006040518083038186803b1580156107e957600080fd5b505afa1580156107fd573d6000803e3d6000fd5b505050506040513d6000823e3d601f19601f820116820180604052508101906108269190610cfc565b93509350935093509193509193565b60006001905090565b600160009054906101000a900473ffffffffffffffffffffffffffffffffffffffff1681565b606060008214156108ac576040518060400160405280600181526020017f30000000000000000000000000000000000000000000000000000000000000008152509050610999565b600082905060005b600082146108d6578080600101915050600a82816108ce57fe5b0491506108b4565b60008167ffffffffffffffff811180156108ef57600080fd5b506040519080825280601f01601f1916602001820160405280156109225781602001600182028036833780820191505090505b5090505b6000851461099257600182039150600a858161093e57fe5b0660300160f81b81838151811061095157fe5b60200101907effffffffffffffffffffffffffffffffffffffffffffffffffffffffffffff1916908160001a905350600a858161098a57fe5b049450610926565b8093505050505b919050565b8280548282559060005260206000209081019282156109da579160200282015b828111156109d95782518255916020019190600101906109be565b5b5090506109e79190610a79565b5090565b828054600181600116156101000203166002900490600052602060002090601f016020900481019282610a215760008555610a68565b82601f10610a3a57805160ff1916838001178555610a68565b82800160010185558215610a68579182015b82811115610a67578251825591602001919060010190610a4c565b5b509050610a759190610a79565b5090565b5b80821115610a92576000816000905550600101610a7a565b5090565b6000610aa9610aa484611082565b611051565b90508083825260208201905082856020860282011115610ac857600080fd5b60005b85811015610af85781610ade8882610c11565b845260208401935060208301925050600181019050610acb565b5050509392505050565b6000610b15610b10846110ae565b611051565b905082815260208101848484011115610b2d57600080fd5b610b388482856111cb565b509392505050565b6000610b53610b4e846110ae565b611051565b905082815260208101848484011115610b6b57600080fd5b610b768482856111da565b509392505050565b600082601f830112610b8f57600080fd5b8151610b9f848260208601610a96565b91505092915050565b600082601f830112610bb957600080fd5b8135610bc9848260208601610b02565b91505092915050565b600082601f830112610be357600080fd5b8151610bf3848260208601610b40565b91505092915050565b600081359050610c0b81611220565b92915050565b600081519050610c2081611220565b92915050565b600060208284031215610c3857600080fd5b600082015167ffffffffffffffff811115610c5257600080fd5b610c5e84828501610b7e565b91505092915050565b60008060408385031215610c7a57600080fd5b600083013567ffffffffffffffff811115610c9457600080fd5b610ca085828601610ba8565b925050602083013567ffffffffffffffff811115610cbd57600080fd5b610cc985828601610ba8565b9150509250929050565b600060208284031215610ce557600080fd5b6000610cf384828501610bfc565b91505092915050565b60008060008060808587031215610d1257600080fd5b6000610d2087828801610c11565b9450506020610d3187828801610c11565b9350506040610d4287828801610c11565b925050606085015167ffffffffffffffff811115610d5f57600080fd5b610d6b87828801610bd2565b91505092959194509250565b6000610d838383610e85565b905092915050565b6000610d978383610ef7565b60208301905092915050565b6000610dae826110fe565b610db88185611139565b935083602082028501610dca856110de565b8060005b85811015610e065784840389528151610de78582610d77565b9450610df28361111f565b925060208a01995050600181019050610dce565b50829750879550505050505092915050565b6000610e2382611109565b610e2d818561114a565b9350610e38836110ee565b8060005b83811015610e69578151610e508882610d8b565b9750610e5b8361112c565b925050600181019050610e3c565b5085935050505092915050565b610e7f816111a7565b82525050565b6000610e9082611114565b610e9a818561115b565b9350610eaa8185602086016111da565b610eb38161120f565b840191505092915050565b6000610ec982611114565b610ed3818561116c565b9350610ee38185602086016111da565b610eec8161120f565b840191505092915050565b610f008161119d565b82525050565b610f0f8161119d565b82525050565b60006020820190508181036000830152610f2f8184610da3565b905092915050565b60006080820190508181036000830152610f518187610da3565b90508181036020830152610f658186610da3565b90508181036040830152610f798185610e18565b90508181036060830152610f8d8184610e18565b905095945050505050565b6000602082019050610fad6000830184610e76565b92915050565b60006040820190508181036000830152610fcd8185610ebe565b90508181036020830152610fe18184610ebe565b90509392505050565b6000602082019050610fff6000830184610f06565b92915050565b600060808201905061101a6000830187610f06565b6110276020830186610f06565b6110346040830185610f06565b81810360608301526110468184610ebe565b905095945050505050565b6000604051905081810181811067ffffffffffffffff821117156110785761107761120d565b5b8060405250919050565b600067ffffffffffffffff82111561109d5761109c61120d565b5b602082029050602081019050919050565b600067ffffffffffffffff8211156110c9576110c861120d565b5b601f19601f8301169050602081019050919050565b6000819050602082019050919050565b6000819050602082019050919050565b600081519050919050565b600081519050919050565b600081519050919050565b6000602082019050919050565b6000602082019050919050565b600082825260208201905092915050565b600082825260208201905092915050565b600082825260208201905092915050565b600082825260208201905092915050565b600073ffffffffffffffffffffffffffffffffffffffff82169050919050565b6000819050919050565b60006111b2826111b9565b9050919050565b60006111c48261117d565b9050919050565b82818337600083830152505050565b60005b838110156111f85780820151818401526020810190506111dd565b83811115611207576000848401525b50505050565bfe5b6000601f19601f8301169050919050565b6112298161119d565b811461123457600080fd5b5056fea26469706673582212209d000caf3b54cc7ad3de12b5344233fbbba15497301b14f9b1557d56378a995464736f6c6343000706003368747470733a2f2f6170692e65786368616e67652e636f696e626173652e636f6d2f70726f64756374732f4554482d5553442f73746174732f",
  "linkReferences": {},
  "deployedLinkReferences": {}
}