{
  "_format": "hh-sol-artifact-1",
  "contractName": "Request",
  "sourceName": "contracts/Request.sol",
  "abi": [
    {
      "inputs": [
        {
          "internalType": "address",
          "name": "_morpheus",
          "type": "address"
        }
      ],
      "stateMutability": "nonpayable",
      "type": "constructor"
    },
    {
      "inputs": [
        {
          "internalType": "uint256",
          "name": "feedID",
          "type": "uint256"
        }
      ],
      "name": "getFeed",
      "outputs": [
        {
          "internalType": "uint256",
          "name": "_value",
          "type": "uint256"
        },
        {
          "internalType": "uint256",
          "name": "_decimals",
          "type": "uint256"
        },
        {
          "internalType": "uint256",
          "name": "_timestamp",
          "type": "uint256"
        },
        {
          "internalType": "string",
          "name": "_valStr",
          "type": "string"
        }
      ],
      "stateMutability": "view",
      "type": "function"
    },
    {
      "inputs": [],
      "name": "getIDs",
      "outputs": [
        {
          "internalType": "uint256[]",
          "name": "",
          "type": "uint256[]"
        }
      ],
      "stateMutability": "view",
      "type": "function"
    },
    {
      "inputs": [],
      "name": "getRequestParams",
      "outputs": [
        {
          "internalType": "string[]",
          "name": "",
          "type": "string[]"
        },
        {
          "internalType": "string[]",
          "name": "",
          "type": "string[]"
        },
        {
          "internalType": "uint256[]",
          "name": "",
          "type": "uint256[]"
        }
      ],
      "stateMutability": "view",
      "type": "function"
    },
    {
      "inputs": [],
      "name": "morpheus",
      "outputs": [
        {
          "internalType": "contract Morpheus",
          "name": "",
          "type": "address"
        }
      ],
      "stateMutability": "view",
      "type": "function"
    },
    {
      "inputs": [],
      "name": "requestFeeds",
      "outputs": [],
      "stateMutability": "payable",
      "type": "function"
    },
    {
      "inputs": [
        {
          "internalType": "string[]",
          "name": "_APIendpoint",
          "type": "string[]"
        },
        {
          "internalType": "string[]",
          "name": "_APIendpointPath",
          "type": "string[]"
        },
        {
          "internalType": "uint256[]",
          "name": "_decimals",
          "type": "uint256[]"
        },
        {
          "internalType": "uint256[]",
          "name": "_bounties",
          "type": "uint256[]"
        }
      ],
      "name": "setRequestParameters",
      "outputs": [],
      "stateMutability": "nonpayable",
      "type": "function"
    }
  ],
  "bytecode": "0x6080604052604051806040016040528060405180606001604052806039815260200162002053603991398152602001604051806060016040528060398152602001620020536039913981525060019060026200005d929190620001a5565b5060405180604001604052806040518060400160405280600481526020017f6c6173740000000000000000000000000000000000000000000000000000000081525081526020016040518060400160405280600481526020017f6f70656e000000000000000000000000000000000000000000000000000000008152508152506002906002620000ef929190620001a5565b506040518060400160405280600260ff168152602001600260ff1681525060039060026200011f92919062000205565b50655af3107a40006004553480156200013757600080fd5b506040516200208c3803806200208c83398181016040528101906200015d919062000353565b80600560006101000a81548173ffffffffffffffffffffffffffffffffffffffff021916908373ffffffffffffffffffffffffffffffffffffffff16021790555050620006e6565b828054828255906000526020600020908101928215620001f2579160200282015b82811115620001f1578251829081620001e09190620005ff565b5091602001919060010190620001c6565b5b5090506200020191906200025c565b5090565b82805482825590600052602060002090810192821562000249579160200282015b8281111562000248578251829060ff1690559160200191906001019062000226565b5b50905062000258919062000284565b5090565b5b80821115620002805760008181620002769190620002a3565b506001016200025d565b5090565b5b808211156200029f57600081600090555060010162000285565b5090565b508054620002b190620003ee565b6000825580601f10620002c55750620002e6565b601f016020900490600052602060002090810190620002e5919062000284565b5b50565b600080fd5b600073ffffffffffffffffffffffffffffffffffffffff82169050919050565b60006200031b82620002ee565b9050919050565b6200032d816200030e565b81146200033957600080fd5b50565b6000815190506200034d8162000322565b92915050565b6000602082840312156200036c576200036b620002e9565b5b60006200037c848285016200033c565b91505092915050565b600081519050919050565b7f4e487b7100000000000000000000000000000000000000000000000000000000600052604160045260246000fd5b7f4e487b7100000000000000000000000000000000000000000000000000000000600052602260045260246000fd5b600060028204905060018216806200040757607f821691505b6020821081036200041d576200041c620003bf565b5b50919050565b60008190508160005260206000209050919050565b60006020601f8301049050919050565b600082821b905092915050565b600060088302620004877fffffffffffffffffffffffffffffffffffffffffffffffffffffffffffffffff8262000448565b62000493868362000448565b95508019841693508086168417925050509392505050565b6000819050919050565b6000819050919050565b6000620004e0620004da620004d484620004ab565b620004b5565b620004ab565b9050919050565b6000819050919050565b620004fc83620004bf565b620005146200050b82620004e7565b84845462000455565b825550505050565b600090565b6200052b6200051c565b62000538818484620004f1565b505050565b5b8181101562000560576200055460008262000521565b6001810190506200053e565b5050565b601f821115620005af57620005798162000423565b620005848462000438565b8101602085101562000594578190505b620005ac620005a38562000438565b8301826200053d565b50505b505050565b600082821c905092915050565b6000620005d460001984600802620005b4565b1980831691505092915050565b6000620005ef8383620005c1565b9150826002028217905092915050565b6200060a8262000385565b67ffffffffffffffff81111562000626576200062562000390565b5b620006328254620003ee565b6200063f82828562000564565b600060209050601f83116001811462000677576000841562000662578287015190505b6200066e8582620005e1565b865550620006de565b601f198416620006878662000423565b60005b82811015620006b1578489015182556001820191506020850194506020810190506200068a565b86831015620006d15784890151620006cd601f891682620005c1565b8355505b6001600288020188555050505b505050505050565b61195d80620006f66000396000f3fe6080604052600436106100555760003560e01c806310d930571461005a57806313f35be1146100645780634e81b3611461008d578063d55d113d146100ba578063ecb76d90146100e5578063ff47730814610125575b600080fd5b610062610150565b005b34801561007057600080fd5b5061008b60048036038101906100869190610b4a565b61035c565b005b34801561009957600080fd5b506100a26103a7565b6040516100b193929190610e20565b60405180910390f35b3480156100c657600080fd5b506100cf6105b5565b6040516100dc9190610e6c565b60405180910390f35b3480156100f157600080fd5b5061010c60048036038101906101079190610e8e565b61060d565b60405161011c9493929190610f14565b60405180910390f35b34801561013157600080fd5b5061013a6106c4565b6040516101479190610fdf565b60405180910390f35b6000600180549050905060008160045461016a9190611029565b9050803410156101af576040517f08c379a00000000000000000000000000000000000000000000000000000000081526004016101a6906110b7565b60405180910390fd5b600280549050821480156101c7575060038054905082145b610206576040517f08c379a00000000000000000000000000000000000000000000000000000000081526004016101fd90611149565b60405180910390fd5b60008267ffffffffffffffff8111156102225761022161083b565b5b6040519080825280602002602001820160405280156102505781602001602082028036833780820191505090505b50905060005b838110156102935760045482828151811061027457610273611169565b5b602002602001018181525050808061028b90611198565b915050610256565b50600560009054906101000a900473ffffffffffffffffffffffffffffffffffffffff1673ffffffffffffffffffffffffffffffffffffffff1663639b55ba83600160026003866040518663ffffffff1660e01b81526004016102f99493929190611464565b60006040518083038185885af1158015610317573d6000803e3d6000fd5b50505050506040513d6000823e3d601f19601f820116820180604052508101906103419190611571565b600090805190602001906103569291906106ea565b50505050565b8360019080519060200190610372929190610737565b508260029080519060200190610389929190610737565b5081600390805190602001906103a09291906106ea565b5050505050565b606080606060016002600382805480602002602001604051908101604052809291908181526020016000905b8282101561047f5783829060005260206000200180546103f29061122f565b80601f016020809104026020016040519081016040528092919081815260200182805461041e9061122f565b801561046b5780601f106104405761010080835404028352916020019161046b565b820191906000526020600020905b81548152906001019060200180831161044e57829003601f168201915b5050505050815260200190600101906103d3565b50505050925081805480602002602001604051908101604052809291908181526020016000905b828210156105525783829060005260206000200180546104c59061122f565b80601f01602080910402602001604051908101604052809291908181526020018280546104f19061122f565b801561053e5780601f106105135761010080835404028352916020019161053e565b820191906000526020600020905b81548152906001019060200180831161052157829003601f168201915b5050505050815260200190600101906104a6565b505050509150808054806020026020016040519081016040528092919081815260200182805480156105a357602002820191906000526020600020905b81548152602001906001019080831161058f575b50505050509050925092509250909192565b6060600080548060200260200160405190810160405280929190818152602001828054801561060357602002820191906000526020600020905b8154815260200190600101908083116105ef575b5050505050905090565b60008060006060600560009054906101000a900473ffffffffffffffffffffffffffffffffffffffff1673ffffffffffffffffffffffffffffffffffffffff1663ecb76d90866040518263ffffffff1660e01b815260040161066f91906115ba565b600060405180830381865afa15801561068c573d6000803e3d6000fd5b505050506040513d6000823e3d601f19601f820116820180604052508101906106b59190611645565b93509350935093509193509193565b600560009054906101000a900473ffffffffffffffffffffffffffffffffffffffff1681565b828054828255906000526020600020908101928215610726579160200282015b8281111561072557825182559160200191906001019061070a565b5b5090506107339190610790565b5090565b82805482825590600052602060002090810192821561077f579160200282015b8281111561077e57825182908161076e9190611855565b5091602001919060010190610757565b5b50905061078c91906107ad565b5090565b5b808211156107a9576000816000905550600101610791565b5090565b5b808211156107cd57600081816107c491906107d1565b506001016107ae565b5090565b5080546107dd9061122f565b6000825580601f106107ef575061080e565b601f01602090049060005260206000209081019061080d9190610790565b5b50565b6000604051905090565b600080fd5b600080fd5b600080fd5b6000601f19601f8301169050919050565b7f4e487b7100000000000000000000000000000000000000000000000000000000600052604160045260246000fd5b6108738261082a565b810181811067ffffffffffffffff821117156108925761089161083b565b5b80604052505050565b60006108a5610811565b90506108b1828261086a565b919050565b600067ffffffffffffffff8211156108d1576108d061083b565b5b602082029050602081019050919050565b600080fd5b600080fd5b600067ffffffffffffffff8211156109075761090661083b565b5b6109108261082a565b9050602081019050919050565b82818337600083830152505050565b600061093f61093a846108ec565b61089b565b90508281526020810184848401111561095b5761095a6108e7565b5b61096684828561091d565b509392505050565b600082601f83011261098357610982610825565b5b813561099384826020860161092c565b91505092915050565b60006109af6109aa846108b6565b61089b565b905080838252602082019050602084028301858111156109d2576109d16108e2565b5b835b81811015610a1957803567ffffffffffffffff8111156109f7576109f6610825565b5b808601610a04898261096e565b855260208501945050506020810190506109d4565b5050509392505050565b600082601f830112610a3857610a37610825565b5b8135610a4884826020860161099c565b91505092915050565b600067ffffffffffffffff821115610a6c57610a6b61083b565b5b602082029050602081019050919050565b6000819050919050565b610a9081610a7d565b8114610a9b57600080fd5b50565b600081359050610aad81610a87565b92915050565b6000610ac6610ac184610a51565b61089b565b90508083825260208201905060208402830185811115610ae957610ae86108e2565b5b835b81811015610b125780610afe8882610a9e565b845260208401935050602081019050610aeb565b5050509392505050565b600082601f830112610b3157610b30610825565b5b8135610b41848260208601610ab3565b91505092915050565b60008060008060808587031215610b6457610b6361081b565b5b600085013567ffffffffffffffff811115610b8257610b81610820565b5b610b8e87828801610a23565b945050602085013567ffffffffffffffff811115610baf57610bae610820565b5b610bbb87828801610a23565b935050604085013567ffffffffffffffff811115610bdc57610bdb610820565b5b610be887828801610b1c565b925050606085013567ffffffffffffffff811115610c0957610c08610820565b5b610c1587828801610b1c565b91505092959194509250565b600081519050919050565b600082825260208201905092915050565b6000819050602082019050919050565b600081519050919050565b600082825260208201905092915050565b60005b83811015610c87578082015181840152602081019050610c6c565b60008484015250505050565b6000610c9e82610c4d565b610ca88185610c58565b9350610cb8818560208601610c69565b610cc18161082a565b840191505092915050565b6000610cd88383610c93565b905092915050565b6000602082019050919050565b6000610cf882610c21565b610d028185610c2c565b935083602082028501610d1485610c3d565b8060005b85811015610d505784840389528151610d318582610ccc565b9450610d3c83610ce0565b925060208a01995050600181019050610d18565b50829750879550505050505092915050565b600081519050919050565b600082825260208201905092915050565b6000819050602082019050919050565b610d9781610a7d565b82525050565b6000610da98383610d8e565b60208301905092915050565b6000602082019050919050565b6000610dcd82610d62565b610dd78185610d6d565b9350610de283610d7e565b8060005b83811015610e13578151610dfa8882610d9d565b9750610e0583610db5565b925050600181019050610de6565b5085935050505092915050565b60006060820190508181036000830152610e3a8186610ced565b90508181036020830152610e4e8185610ced565b90508181036040830152610e628184610dc2565b9050949350505050565b60006020820190508181036000830152610e868184610dc2565b905092915050565b600060208284031215610ea457610ea361081b565b5b6000610eb284828501610a9e565b91505092915050565b610ec481610a7d565b82525050565b600082825260208201905092915050565b6000610ee682610c4d565b610ef08185610eca565b9350610f00818560208601610c69565b610f098161082a565b840191505092915050565b6000608082019050610f296000830187610ebb565b610f366020830186610ebb565b610f436040830185610ebb565b8181036060830152610f558184610edb565b905095945050505050565b600073ffffffffffffffffffffffffffffffffffffffff82169050919050565b6000819050919050565b6000610fa5610fa0610f9b84610f60565b610f80565b610f60565b9050919050565b6000610fb782610f8a565b9050919050565b6000610fc982610fac565b9050919050565b610fd981610fbe565b82525050565b6000602082019050610ff46000830184610fd0565b92915050565b7f4e487b7100000000000000000000000000000000000000000000000000000000600052601160045260246000fd5b600061103482610a7d565b915061103f83610a7d565b925082820261104d81610a7d565b9150828204841483151761106457611063610ffa565b5b5092915050565b7f526571756573743a20496e73756666696369656e742066656573000000000000600082015250565b60006110a1601a83610eca565b91506110ac8261106b565b602082019050919050565b600060208201905081810360008301526110d081611094565b9050919050565b7f526571756573743a20496e76616c6964207265717565737420706172616d657460008201527f657273206c656e67746800000000000000000000000000000000000000000000602082015250565b6000611133602a83610eca565b915061113e826110d7565b604082019050919050565b6000602082019050818103600083015261116281611126565b9050919050565b7f4e487b7100000000000000000000000000000000000000000000000000000000600052603260045260246000fd5b60006111a382610a7d565b91507fffffffffffffffffffffffffffffffffffffffffffffffffffffffffffffffff82036111d5576111d4610ffa565b5b600182019050919050565b600081549050919050565b60008190508160005260206000209050919050565b7f4e487b7100000000000000000000000000000000000000000000000000000000600052602260045260246000fd5b6000600282049050600182168061124757607f821691505b60208210810361125a57611259611200565b5b50919050565b60008190508160005260206000209050919050565b600081546112828161122f565b61128c8186610c58565b945060018216600081146112a757600181146112bd576112f0565b60ff1983168652811515602002860193506112f0565b6112c685611260565b60005b838110156112e8578154818901526001820191506020810190506112c9565b808801955050505b50505092915050565b60006113058383611275565b905092915050565b6000600182019050919050565b6000611325826111e0565b61132f8185610c2c565b935083602082028501611341856111eb565b8060005b8581101561137c5784840389528161135d85826112f9565b94506113688361130d565b925060208a01995050600181019050611345565b50829750879550505050505092915050565b600081549050919050565b60008190508160005260206000209050919050565b60008160001c9050919050565b6000819050919050565b60006113d86113d3836113ae565b6113bb565b9050919050565b60006113eb82546113c5565b9050919050565b6000600182019050919050565b600061140a8261138e565b6114148185610d6d565b935061141f83611399565b8060005b8381101561145757611434826113df565b61143e8882610d9d565b9750611449836113f2565b925050600181019050611423565b5085935050505092915050565b6000608082019050818103600083015261147e818761131a565b90508181036020830152611492818661131a565b905081810360408301526114a681856113ff565b905081810360608301526114ba8184610dc2565b905095945050505050565b6000815190506114d481610a87565b92915050565b60006114ed6114e884610a51565b61089b565b905080838252602082019050602084028301858111156115105761150f6108e2565b5b835b81811015611539578061152588826114c5565b845260208401935050602081019050611512565b5050509392505050565b600082601f83011261155857611557610825565b5b81516115688482602086016114da565b91505092915050565b6000602082840312156115875761158661081b565b5b600082015167ffffffffffffffff8111156115a5576115a4610820565b5b6115b184828501611543565b91505092915050565b60006020820190506115cf6000830184610ebb565b92915050565b60006115e86115e3846108ec565b61089b565b905082815260208101848484011115611604576116036108e7565b5b61160f848285610c69565b509392505050565b600082601f83011261162c5761162b610825565b5b815161163c8482602086016115d5565b91505092915050565b6000806000806080858703121561165f5761165e61081b565b5b600061166d878288016114c5565b945050602061167e878288016114c5565b935050604061168f878288016114c5565b925050606085015167ffffffffffffffff8111156116b0576116af610820565b5b6116bc87828801611617565b91505092959194509250565b60006020601f8301049050919050565b600082821b905092915050565b6000600883026117157fffffffffffffffffffffffffffffffffffffffffffffffffffffffffffffffff826116d8565b61171f86836116d8565b95508019841693508086168417925050509392505050565b600061175261174d61174884610a7d565b610f80565b610a7d565b9050919050565b6000819050919050565b61176c83611737565b61178061177882611759565b8484546116e5565b825550505050565b600090565b611795611788565b6117a0818484611763565b505050565b5b818110156117c4576117b960008261178d565b6001810190506117a6565b5050565b601f821115611809576117da81611260565b6117e3846116c8565b810160208510156117f2578190505b6118066117fe856116c8565b8301826117a5565b50505b505050565b600082821c905092915050565b600061182c6000198460080261180e565b1980831691505092915050565b6000611845838361181b565b9150826002028217905092915050565b61185e82610c4d565b67ffffffffffffffff8111156118775761187661083b565b5b611881825461122f565b61188c8282856117c8565b600060209050601f8311600181146118bf57600084156118ad578287015190505b6118b78582611839565b86555061191f565b601f1984166118cd86611260565b60005b828110156118f5578489015182556001820191506020850194506020810190506118d0565b86831015611912578489015161190e601f89168261181b565b8355505b6001600288020188555050505b50505050505056fea2646970667358221220dc575334b2e8a9e555e332984d7ce531c23ed88f88483b5c16976a1be575497964736f6c6343000814003368747470733a2f2f6170692e65786368616e67652e636f696e626173652e636f6d2f70726f64756374732f4554482d5553442f73746174732f",
  "linkReferences": {},
  "deployedLinkReferences": {}
}